{
  "contractName": "Airbnb",
  "abi": [
    {
      "anonymous": false,
      "inputs": [
        {
          "indexed": true,
          "internalType": "uint256",
          "name": "propertyId",
          "type": "uint256"
        },
        {
          "indexed": true,
          "internalType": "uint256",
          "name": "bookingId",
          "type": "uint256"
        }
      ],
      "name": "NewBooking",
      "type": "event"
    },
    {
      "anonymous": false,
      "inputs": [
        {
          "indexed": true,
          "internalType": "uint256",
          "name": "propertyId",
          "type": "uint256"
        }
      ],
      "name": "NewProperty",
      "type": "event"
    },
    {
      "inputs": [],
      "name": "bookingId",
      "outputs": [
        {
          "internalType": "uint256",
          "name": "",
          "type": "uint256"
        }
      ],
      "stateMutability": "view",
      "type": "function"
    },
    {
      "inputs": [
        {
          "internalType": "uint256",
          "name": "",
          "type": "uint256"
        }
      ],
      "name": "bookings",
      "outputs": [
        {
          "internalType": "uint256",
          "name": "propertyId",
          "type": "uint256"
        },
        {
          "internalType": "uint256",
          "name": "checkInDate",
          "type": "uint256"
        },
        {
          "internalType": "uint256",
          "name": "checkoutDate",
          "type": "uint256"
        },
        {
          "internalType": "address",
          "name": "user",
          "type": "address"
        }
      ],
      "stateMutability": "view",
      "type": "function"
    },
    {
      "inputs": [
        {
          "internalType": "uint256",
          "name": "",
          "type": "uint256"
        }
      ],
      "name": "properties",
      "outputs": [
        {
          "internalType": "string",
          "name": "name",
          "type": "string"
        },
        {
          "internalType": "string",
          "name": "description",
          "type": "string"
        },
        {
          "internalType": "bool",
          "name": "isActive",
          "type": "bool"
        },
        {
          "internalType": "uint256",
          "name": "price",
          "type": "uint256"
        },
        {
          "internalType": "address payable",
          "name": "owner",
          "type": "address"
        }
      ],
      "stateMutability": "view",
      "type": "function"
    },
    {
      "inputs": [],
      "name": "propertyId",
      "outputs": [
        {
          "internalType": "uint256",
          "name": "",
          "type": "uint256"
        }
      ],
      "stateMutability": "view",
      "type": "function"
    },
    {
      "inputs": [
        {
          "internalType": "string",
          "name": "name",
          "type": "string"
        },
        {
          "internalType": "string",
          "name": "description",
          "type": "string"
        },
        {
          "internalType": "uint256",
          "name": "price",
          "type": "uint256"
        }
      ],
      "name": "rentOutProperty",
      "outputs": [],
      "stateMutability": "nonpayable",
      "type": "function"
    },
    {
      "inputs": [
        {
          "internalType": "uint256",
          "name": "_propertyId",
          "type": "uint256"
        },
        {
          "internalType": "uint256",
          "name": "checkInDate",
          "type": "uint256"
        },
        {
          "internalType": "uint256",
          "name": "checkoutDate",
          "type": "uint256"
        }
      ],
      "name": "rentProperty",
      "outputs": [],
      "stateMutability": "payable",
      "type": "function"
    },
    {
      "inputs": [
        {
          "internalType": "uint256",
          "name": "_propertyId",
          "type": "uint256"
        }
      ],
      "name": "markPropertyAsInactive",
      "outputs": [],
      "stateMutability": "nonpayable",
      "type": "function"
    }
  ],
  "bytecode": "0x608060405234801561001057600080fd5b5061131b806100206000396000f3fe6080604052600436106100705760003560e01c8063d2da7c711161004e578063d2da7c7114610109578063ee7a3b8e14610125578063ee860c8214610150578063f7b108081461017957610070565b80630a10df7c146100755780631dab301e146100a0578063b3e3f803146100e0575b600080fd5b34801561008157600080fd5b5061008a6101ba565b6040516100979190610e98565b60405180910390f35b3480156100ac57600080fd5b506100c760048036038101906100c29190610c3e565b6101c0565b6040516100d79493929190610eb3565b60405180910390f35b3480156100ec57600080fd5b5061010760048036038101906101029190610c3e565b610210565b005b610123600480360381019061011e9190610c67565b6102e6565b005b34801561013157600080fd5b5061013a6104b5565b6040516101479190610e98565b60405180910390f35b34801561015c57600080fd5b5061017760048036038101906101729190610bbf565b6104bb565b005b34801561018557600080fd5b506101a0600480360381019061019b9190610c3e565b61069d565b6040516101b1959493929190610db7565b60405180910390f35b60025481565b60036020528060005260406000206000915090508060000154908060010154908060020154908060030160009054906101000a900473ffffffffffffffffffffffffffffffffffffffff16905084565b3373ffffffffffffffffffffffffffffffffffffffff166001600083815260200190815260200160002060040160009054906101000a900473ffffffffffffffffffffffffffffffffffffffff1673ffffffffffffffffffffffffffffffffffffffff16146102b4576040517f08c379a00000000000000000000000000000000000000000000000000000000081526004016102ab90610e18565b60405180910390fd5b60006001600083815260200190815260200160002060020160006101000a81548160ff02191690831515021790555050565b6000600160008581526020019081526020016000209050600115158160020160009054906101000a900460ff16151514610355576040517f08c379a000000000000000000000000000000000000000000000000000000000815260040161034c90610e38565b60405180910390fd5b60008390505b8281101561041957600115158260050182815481106103a3577f4e487b7100000000000000000000000000000000000000000000000000000000600052603260045260246000fd5b90600052602060002090602091828204019190069054906101000a900460ff1615151415610406576040517f08c379a00000000000000000000000000000000000000000000000000000000081526004016103fd90610e78565b60405180910390fd5b8080610411906110f7565b91505061035b565b5082826104269190610fc4565b81600301546104359190610f6a565b3414610476576040517f08c379a000000000000000000000000000000000000000000000000000000000815260040161046d90610e58565b60405180910390fd5b6104a48160040160009054906101000a900473ffffffffffffffffffffffffffffffffffffffff1634610810565b6104af84848461085b565b50505050565b60005481565b60006040518060c001604052808581526020018481526020016001151581526020018381526020013373ffffffffffffffffffffffffffffffffffffffff16815260200161016d67ffffffffffffffff811115610541577f4e487b7100000000000000000000000000000000000000000000000000000000600052604160045260246000fd5b60405190808252806020026020018201604052801561056f5781602001602082028036833780820191505090505b50815250905080600160008054815260200190815260200160002060008201518160000190805190602001906105a69291906109f9565b5060208201518160010190805190602001906105c39291906109f9565b5060408201518160020160006101000a81548160ff0219169083151502179055506060820151816003015560808201518160040160006101000a81548173ffffffffffffffffffffffffffffffffffffffff021916908373ffffffffffffffffffffffffffffffffffffffff16021790555060a0820151816005019080519060200190610651929190610a7f565b50905050600080815480929190610667906110f7565b919050557f49b7a39e21349b16cf820bbd35d2bc2d9f04dac75faa535510fc24d172b34afd60405160405180910390a250505050565b60016020528060005260406000206000915090508060000180546106c090611094565b80601f01602080910402602001604051908101604052809291908181526020018280546106ec90611094565b80156107395780601f1061070e57610100808354040283529160200191610739565b820191906000526020600020905b81548152906001019060200180831161071c57829003601f168201915b50505050509080600101805461074e90611094565b80601f016020809104026020016040519081016040528092919081815260200182805461077a90611094565b80156107c75780601f1061079c576101008083540402835291602001916107c7565b820191906000526020600020905b8154815290600101906020018083116107aa57829003601f168201915b5050505050908060020160009054906101000a900460ff16908060030154908060040160009054906101000a900473ffffffffffffffffffffffffffffffffffffffff16905085565b8173ffffffffffffffffffffffffffffffffffffffff166108fc829081150290604051600060405180830381858888f19350505050158015610856573d6000803e3d6000fd5b505050565b60405180608001604052808481526020018381526020018281526020013373ffffffffffffffffffffffffffffffffffffffff1681525060036000600254815260200190815260200160002060008201518160000155602082015181600101556040820151816002015560608201518160030160006101000a81548173ffffffffffffffffffffffffffffffffffffffff021916908373ffffffffffffffffffffffffffffffffffffffff160217905550905050600060016000858152602001908152602001600020905060008390505b828110156109ae576001826005018281548110610972577f4e487b7100000000000000000000000000000000000000000000000000000000600052603260045260246000fd5b90600052602060002090602091828204019190066101000a81548160ff02191690831515021790555080806109a6906110f7565b91505061092c565b50600260008154809291906109c2906110f7565b91905055847f4f65de66b4cd3e97fb943ca503efa62b328170ad1a0aac0e9c979a164a317b3860405160405180910390a350505050565b828054610a0590611094565b90600052602060002090601f016020900481019282610a275760008555610a6e565b82601f10610a4057805160ff1916838001178555610a6e565b82800160010185558215610a6e579182015b82811115610a6d578251825591602001919060010190610a52565b5b509050610a7b9190610b25565b5090565b82805482825590600052602060002090601f01602090048101928215610b145791602002820160005b83821115610ae557835183826101000a81548160ff0219169083151502179055509260200192600101602081600001049283019260010302610aa8565b8015610b125782816101000a81549060ff0219169055600101602081600001049283019260010302610ae5565b505b509050610b219190610b25565b5090565b5b80821115610b3e576000816000905550600101610b26565b5090565b6000610b55610b5084610f1d565b610ef8565b905082815260208101848484011115610b6d57600080fd5b610b78848285611052565b509392505050565b600082601f830112610b9157600080fd5b8135610ba1848260208601610b42565b91505092915050565b600081359050610bb9816112ce565b92915050565b600080600060608486031215610bd457600080fd5b600084013567ffffffffffffffff811115610bee57600080fd5b610bfa86828701610b80565b935050602084013567ffffffffffffffff811115610c1757600080fd5b610c2386828701610b80565b9250506040610c3486828701610baa565b9150509250925092565b600060208284031215610c5057600080fd5b6000610c5e84828501610baa565b91505092915050565b600080600060608486031215610c7c57600080fd5b6000610c8a86828701610baa565b9350506020610c9b86828701610baa565b9250506040610cac86828701610baa565b9150509250925092565b610cbf8161100a565b82525050565b610cce81610ff8565b82525050565b610cdd8161101c565b82525050565b6000610cee82610f4e565b610cf88185610f59565b9350610d08818560208601611061565b610d11816111cd565b840191505092915050565b6000610d29601983610f59565b9150610d34826111de565b602082019050919050565b6000610d4c602383610f59565b9150610d5782611207565b604082019050919050565b6000610d6f601783610f59565b9150610d7a82611256565b602082019050919050565b6000610d92603083610f59565b9150610d9d8261127f565b604082019050919050565b610db181611048565b82525050565b600060a0820190508181036000830152610dd18188610ce3565b90508181036020830152610de58187610ce3565b9050610df46040830186610cd4565b610e016060830185610da8565b610e0e6080830184610cb6565b9695505050505050565b60006020820190508181036000830152610e3181610d1c565b9050919050565b60006020820190508181036000830152610e5181610d3f565b9050919050565b60006020820190508181036000830152610e7181610d62565b9050919050565b60006020820190508181036000830152610e9181610d85565b9050919050565b6000602082019050610ead6000830184610da8565b92915050565b6000608082019050610ec86000830187610da8565b610ed56020830186610da8565b610ee26040830185610da8565b610eef6060830184610cc5565b95945050505050565b6000610f02610f13565b9050610f0e82826110c6565b919050565b6000604051905090565b600067ffffffffffffffff821115610f3857610f3761119e565b5b610f41826111cd565b9050602081019050919050565b600081519050919050565b600082825260208201905092915050565b6000610f7582611048565b9150610f8083611048565b9250817fffffffffffffffffffffffffffffffffffffffffffffffffffffffffffffffff0483118215151615610fb957610fb8611140565b5b828202905092915050565b6000610fcf82611048565b9150610fda83611048565b925082821015610fed57610fec611140565b5b828203905092915050565b600061100382611028565b9050919050565b600061101582611028565b9050919050565b60008115159050919050565b600073ffffffffffffffffffffffffffffffffffffffff82169050919050565b6000819050919050565b82818337600083830152505050565b60005b8381101561107f578082015181840152602081019050611064565b8381111561108e576000848401525b50505050565b600060028204905060018216806110ac57607f821691505b602082108114156110c0576110bf61116f565b5b50919050565b6110cf826111cd565b810181811067ffffffffffffffff821117156110ee576110ed61119e565b5b80604052505050565b600061110282611048565b91507fffffffffffffffffffffffffffffffffffffffffffffffffffffffffffffffff82141561113557611134611140565b5b600182019050919050565b7f4e487b7100000000000000000000000000000000000000000000000000000000600052601160045260246000fd5b7f4e487b7100000000000000000000000000000000000000000000000000000000600052602260045260246000fd5b7f4e487b7100000000000000000000000000000000000000000000000000000000600052604160045260246000fd5b6000601f19601f8301169050919050565b7f74686973206973206e6f7420796f75722070726f706572747900000000000000600082015250565b7f70726f706572747920776974682074686973204944206973206e6f742061637460008201527f6976650000000000000000000000000000000000000000000000000000000000602082015250565b7f53656e7420696e73756666696369656e742066756e6473000000000000000000600082015250565b7f70726f7065727479206973206e6f7420617661696c61626c6520666f7220746860008201527f652073656c656374656420646174657300000000000000000000000000000000602082015250565b6112d781611048565b81146112e257600080fd5b5056fea26469706673582212205b79b8553a1bb07635593604a550abb58a928ad275c6657fbd1adc3ada90d4c264736f6c63430008040033",
  "immutableReferences": {},
  "source": "//SPDX-License-Identifier: MIT\r\n\r\npragma solidity ^0.8.0;\r\n\r\ncontract Airbnb{\r\n\r\n    struct Property{\r\n        string name;\r\n        string description;\r\n        bool isActive;\r\n        uint price;\r\n        address payable owner;\r\n        bool[] isBooked;\r\n    }\r\n\r\n    uint256 public propertyId;\r\n\r\n    mapping(uint256 => Property) public properties;\r\n\r\n    struct Booking {\r\n        uint256 propertyId;\r\n        uint256 checkInDate;\r\n        uint256 checkoutDate;\r\n        address user;\r\n    }\r\n\r\n    uint256 public bookingId;\r\n\r\n    mapping(uint256 => Booking) public bookings;\r\n\r\n    event NewProperty(\r\n        uint256 indexed propertyId\r\n    );\r\n\r\n    event NewBooking(\r\n        uint256 indexed propertyId,\r\n        uint256 indexed bookingId\r\n    );\r\n\r\n    function rentOutProperty(string memory name,string memory description, uint256 price) public{\r\n    \r\n        Property memory property=Property(name,description,true,price,payable(msg.sender),new bool[](365));\r\n    \r\n        properties[propertyId]= property;\r\n\r\n        //emit an event to notify the clients of website\r\n        emit NewProperty(propertyId++);\r\n    \r\n    }\r\n\r\n    function rentProperty(uint256 _propertyId,uint256 checkInDate,uint256 checkoutDate) public payable{\r\n        Property storage property= properties[_propertyId];\r\n\r\n        require(\r\n            property.isActive==true,\"property with this ID is not active\"\r\n        );\r\n\r\n        for(uint i =checkInDate; i<checkoutDate; i++){\r\n            if(property.isBooked[i] ==true){\r\n                revert(\"property is not available for the selected dates\");\r\n            }\r\n        }\r\n\r\n        require(\r\n            msg.value==property.price*(checkoutDate-checkInDate),\r\n            \"Sent insufficient funds\"\r\n        );\r\n        \r\n        _sendFunds(property.owner,msg.value);\r\n\r\n        _createBooking(_propertyId,checkInDate,checkoutDate);\r\n    }\r\n\r\n    function _createBooking(uint256 _propertyId,uint256 checkInDate,uint256 checkoutDate) internal{\r\n\r\n        bookings[bookingId] = Booking(_propertyId,checkInDate,checkoutDate,msg.sender);\r\n\r\n        Property storage property= properties[_propertyId];\r\n\r\n        for(uint256 i=checkInDate;i<checkoutDate; i++){\r\n            property.isBooked[i] = true;\r\n        }\r\n\r\n        emit NewBooking(_propertyId,bookingId++);\r\n    }\r\n\r\n    function _sendFunds (address payable beneficiary, uint256 value) internal{\r\n        payable(beneficiary).transfer(value);\r\n    }\r\n\r\n    function markPropertyAsInactive(uint256 _propertyId) public{\r\n        require(\r\n            properties[_propertyId].owner==msg.sender,\r\n            \"this is not your property\"\r\n        );\r\n        properties[_propertyId].isActive=false;\r\n    }\r\n\r\n}",
  "sourcePath": "D:\\Airbnb\\contracts\\Airbnb.sol",
  "compiler": {
    "name": "solc",
    "version": "0.8.4+commit.c7e474f2.Emscripten.clang"
  },
  "schemaVersion": "3.4.7",
  "updatedAt": "2022-06-04T15:25:14.973Z",
  "devdoc": {
    "kind": "dev",
    "methods": {},
    "version": 1
  },
  "userdoc": {
    "kind": "user",
    "methods": {},
    "version": 1
  }
}